{
  "contractName": "COSTLicense",
  "abi": [
    {
      "constant": true,
      "inputs": [],
      "name": "licenseHolder",
      "outputs": [
        {
          "name": "",
          "type": "address"
        }
      ],
      "payable": false,
      "stateMutability": "view",
      "type": "function"
    },
    {
      "constant": true,
      "inputs": [
        {
          "name": "",
          "type": "address"
        }
      ],
      "name": "balances",
      "outputs": [
        {
          "name": "",
          "type": "uint256"
        }
      ],
      "payable": false,
      "stateMutability": "view",
      "type": "function"
    },
    {
      "constant": true,
      "inputs": [],
      "name": "beneficiary",
      "outputs": [
        {
          "name": "",
          "type": "address"
        }
      ],
      "payable": false,
      "stateMutability": "view",
      "type": "function"
    },
    {
      "constant": true,
      "inputs": [],
      "name": "assessedValue",
      "outputs": [
        {
          "name": "",
          "type": "uint256"
        }
      ],
      "payable": false,
      "stateMutability": "view",
      "type": "function"
    },
    {
      "constant": true,
      "inputs": [],
      "name": "annualTaxRate",
      "outputs": [
        {
          "name": "",
          "type": "uint256"
        }
      ],
      "payable": false,
      "stateMutability": "view",
      "type": "function"
    },
    {
      "constant": true,
      "inputs": [],
      "name": "lastCollectionTime",
      "outputs": [
        {
          "name": "",
          "type": "uint256"
        }
      ],
      "payable": false,
      "stateMutability": "view",
      "type": "function"
    },
    {
      "constant": true,
      "inputs": [],
      "name": "licenseAgreementHash",
      "outputs": [
        {
          "name": "",
          "type": "bytes32"
        }
      ],
      "payable": false,
      "stateMutability": "view",
      "type": "function"
    },
    {
      "inputs": [
        {
          "name": "_licenseAgreementHash",
          "type": "bytes32"
        },
        {
          "name": "_assessedValue",
          "type": "uint256"
        },
        {
          "name": "_annualTaxRate",
          "type": "uint256"
        },
        {
          "name": "_beneficiary",
          "type": "address"
        }
      ],
      "payable": false,
      "stateMutability": "nonpayable",
      "type": "constructor"
    },
    {
      "payable": true,
      "stateMutability": "payable",
      "type": "fallback"
    },
    {
      "anonymous": false,
      "inputs": [
        {
          "indexed": false,
          "name": "message",
          "type": "string"
        },
        {
          "indexed": false,
          "name": "addr",
          "type": "address"
        }
      ],
      "name": "Address",
      "type": "event"
    },
    {
      "constant": false,
      "inputs": [
        {
          "name": "newAssessment",
          "type": "uint256"
        },
        {
          "name": "agreementStatement",
          "type": "string"
        }
      ],
      "name": "buy",
      "outputs": [],
      "payable": true,
      "stateMutability": "payable",
      "type": "function"
    },
    {
      "constant": false,
      "inputs": [
        {
          "name": "newAssessedValue",
          "type": "uint256"
        }
      ],
      "name": "assessValue",
      "outputs": [],
      "payable": false,
      "stateMutability": "nonpayable",
      "type": "function"
    },
    {
      "constant": false,
      "inputs": [],
      "name": "collectTaxes",
      "outputs": [],
      "payable": false,
      "stateMutability": "nonpayable",
      "type": "function"
    },
    {
      "constant": true,
      "inputs": [
        {
          "name": "_owner",
          "type": "address"
        }
      ],
      "name": "balanceOf",
      "outputs": [
        {
          "name": "",
          "type": "uint256"
        }
      ],
      "payable": false,
      "stateMutability": "view",
      "type": "function"
    },
    {
      "constant": false,
      "inputs": [
        {
          "name": "amount",
          "type": "uint256"
        }
      ],
      "name": "withdraw",
      "outputs": [],
      "payable": false,
      "stateMutability": "nonpayable",
      "type": "function"
    },
    {
      "constant": false,
      "inputs": [],
      "name": "deposit",
      "outputs": [],
      "payable": true,
      "stateMutability": "payable",
      "type": "function"
    }
  ],
  "bytecode": "0x608060405234801561001057600080fd5b50604051608080610dcd8339810180604052810190808051906020019092919080519060200190929190805190602001909291908051906020019092919050505060006001026000191684600019161415151561006c57600080fd5b60008211151561007b57600080fd5b60008311151561008a57600080fd5b600073ffffffffffffffffffffffffffffffffffffffff168173ffffffffffffffffffffffffffffffffffffffff16141515156100c657600080fd5b836000816000191690555080600160006101000a81548173ffffffffffffffffffffffffffffffffffffffff021916908373ffffffffffffffffffffffffffffffffffffffff16021790555080600460006101000a81548173ffffffffffffffffffffffffffffffffffffffff021916908373ffffffffffffffffffffffffffffffffffffffff16021790555082600281905550816003819055504260068190555050505050610c528061017b6000396000f3006080604052600436106100c5576000357c0100000000000000000000000000000000000000000000000000000000900463ffffffff16806301b613a5146101145780631d498d911461012b57806327e235e3146101825780632e1a7d4d146101d957806335c80a1b1461020657806338af3eed1461023357806354263a1f1461028a57806370a08231146102b557806399ec077d1461030c578063af9e127614610337578063b7dc3b1814610362578063d0e30db0146103c8578063f8b0fd8e146103d2575b34600560003373ffffffffffffffffffffffffffffffffffffffff1673ffffffffffffffffffffffffffffffffffffffff16815260200190815260200160002060008282540192505081905550005b34801561012057600080fd5b50610129610405565b005b34801561013757600080fd5b50610140610490565b604051808273ffffffffffffffffffffffffffffffffffffffff1673ffffffffffffffffffffffffffffffffffffffff16815260200191505060405180910390f35b34801561018e57600080fd5b506101c3600480360381019080803573ffffffffffffffffffffffffffffffffffffffff1690602001909291905050506104b6565b6040518082815260200191505060405180910390f35b3480156101e557600080fd5b50610204600480360381019080803590602001909291905050506104ce565b005b34801561021257600080fd5b50610231600480360381019080803590602001909291905050506105bb565b005b34801561023f57600080fd5b50610248610692565b604051808273ffffffffffffffffffffffffffffffffffffffff1673ffffffffffffffffffffffffffffffffffffffff16815260200191505060405180910390f35b34801561029657600080fd5b5061029f6106b8565b6040518082815260200191505060405180910390f35b3480156102c157600080fd5b506102f6600480360381019080803573ffffffffffffffffffffffffffffffffffffffff1690602001909291905050506106be565b6040518082815260200191505060405180910390f35b34801561031857600080fd5b50610321610707565b6040518082815260200191505060405180910390f35b34801561034357600080fd5b5061034c61070d565b6040518082815260200191505060405180910390f35b6103c660048036038101908080359060200190929190803590602001908201803590602001908080601f0160208091040260200160405190810160405280939291908181526020018383808284378201915050505050509192919290505050610713565b005b6103d06109e2565b005b3480156103de57600080fd5b506103e7610a31565b60405180826000191660001916815260200191505060405180910390f35b600460009054906101000a900473ffffffffffffffffffffffffffffffffffffffff1673ffffffffffffffffffffffffffffffffffffffff16600160009054906101000a900473ffffffffffffffffffffffffffffffffffffffff1673ffffffffffffffffffffffffffffffffffffffff1614151561048757610486610a37565b5b42600681905550565b600160009054906101000a900473ffffffffffffffffffffffffffffffffffffffff1681565b60056020528060005260406000206000915090505481565b6104d6610405565b600560003373ffffffffffffffffffffffffffffffffffffffff1673ffffffffffffffffffffffffffffffffffffffff16815260200190815260200160002054811115151561052457600080fd5b80600560003373ffffffffffffffffffffffffffffffffffffffff1673ffffffffffffffffffffffffffffffffffffffff168152602001908152602001600020600082825403925050819055503373ffffffffffffffffffffffffffffffffffffffff166108fc829081150290604051600060405180830381858888f193505050501580156105b7573d6000803e3d6000fd5b5050565b6105c3610405565b600160009054906101000a900473ffffffffffffffffffffffffffffffffffffffff1673ffffffffffffffffffffffffffffffffffffffff163373ffffffffffffffffffffffffffffffffffffffff16141515610688576040517f08c379a000000000000000000000000000000000000000000000000000000000815260040180806020018281038252601f8152602001807f556e61757468726f697a6564206173736573736d656e7420617474656d70740081525060200191505060405180910390fd5b8060028190555050565b600460009054906101000a900473ffffffffffffffffffffffffffffffffffffffff1681565b60025481565b6000600560008373ffffffffffffffffffffffffffffffffffffffff1673ffffffffffffffffffffffffffffffffffffffff168152602001908152602001600020549050919050565b60035481565b60065481565b61071b610405565b60405180807f4279207369676e696e672074686973207472616e73616374696f6e204920616781526020017f72656520746f2074686520636f6e74726163742773206c6963656e636520616781526020017f7265656d656e74000000000000000000000000000000000000000000000000008152506047019050604051809103902060001916816040518082805190602001908083835b6020831015156107d757805182526020820191506020810190506020830392506107b2565b6001836020036101000a03801982511681845116808217855250505050505090500191505060405180910390206000191614151561081457600080fd5b60008211151561088c576040517f08c379a00000000000000000000000000000000000000000000000000000000081526004018080602001828103825260138152602001807f5a65726f206e6577206173736573736d656e740000000000000000000000000081525060200191505060405180910390fd5b6002543414151561092b576040517f08c379a00000000000000000000000000000000000000000000000000000000081526004018080602001828103825260258152602001807f53656e7420696e636f72726563742076616c75652077697468207472616e736181526020017f6374696f6e00000000000000000000000000000000000000000000000000000081525060400191505060405180910390fd5b600160009054906101000a900473ffffffffffffffffffffffffffffffffffffffff1673ffffffffffffffffffffffffffffffffffffffff166108fc6002549081150290604051600060405180830381858888f19350505050158015610995573d6000803e3d6000fd5b508160028190555033600160006101000a81548173ffffffffffffffffffffffffffffffffffffffff021916908373ffffffffffffffffffffffffffffffffffffffff1602179055505050565b34600560003373ffffffffffffffffffffffffffffffffffffffff1673ffffffffffffffffffffffffffffffffffffffff16815260200190815260200160002060008282540192505081905550565b60005481565b600080600080606460035460025402811515610a4f57fe5b0493506301e1338084811515610a6157fe5b0492506006544203915082820290508060056000600160009054906101000a900473ffffffffffffffffffffffffffffffffffffffff1673ffffffffffffffffffffffffffffffffffffffff1673ffffffffffffffffffffffffffffffffffffffff168152602001908152602001600020541015610b4157600460009054906101000a900473ffffffffffffffffffffffffffffffffffffffff16600160006101000a81548173ffffffffffffffffffffffffffffffffffffffff021916908373ffffffffffffffffffffffffffffffffffffffff160217905550610c20565b8060056000600160009054906101000a900473ffffffffffffffffffffffffffffffffffffffff1673ffffffffffffffffffffffffffffffffffffffff1673ffffffffffffffffffffffffffffffffffffffff168152602001908152602001600020600082825403925050819055508060056000600460009054906101000a900473ffffffffffffffffffffffffffffffffffffffff1673ffffffffffffffffffffffffffffffffffffffff1673ffffffffffffffffffffffffffffffffffffffff168152602001908152602001600020600082825401925050819055505b505050505600a165627a7a7230582042497df4afe051fee15a44a25502e2f4c3d77314cc5e05dd001b0d9865dd98aa0029",
  "source": "pragma solidity ^0.4.22;\n\ncontract COSTLicense {\n\n  event Address(string message, address addr);\n\n  bytes32 public licenseAgreementHash;\n  address public licenseHolder;\n  uint public assessedValue;\n  uint public annualTaxRate;\n  address public beneficiary;\n\n  mapping(address => uint) public balances;\n\n  uint public lastCollectionTime; // unix timestamp in seconds\n\n  constructor(bytes32 _licenseAgreementHash,\n              uint _assessedValue,\n              uint _annualTaxRate,\n              address _beneficiary) public {\n\n    require(_licenseAgreementHash != bytes32(0));\n    require(_annualTaxRate > 0);\n    require(_assessedValue > 0);\n    require(_beneficiary != address(0));\n\n    licenseAgreementHash = _licenseAgreementHash;\n    licenseHolder = _beneficiary;\n    beneficiary = _beneficiary;\n    assessedValue = _assessedValue;\n    annualTaxRate = _annualTaxRate;\n    lastCollectionTime = now;\n  }\n\n  // buy the license for the assessed value\n  function buy(uint newAssessment, string agreementStatement) public payable {\n    collectTaxes();\n    require(keccak256(agreementStatement) == keccak256(\"By signing this transaction I agree to the contract's licence agreement\"));\n    require(newAssessment > 0, \"Zero new assessment\");\n    require(msg.value == assessedValue, \"Sent incorrect value with transaction\");\n\n    licenseHolder.transfer(assessedValue);\n\n    assessedValue = newAssessment;\n    licenseHolder = msg.sender;\n  }\n\n  function assessValue(uint newAssessedValue) public {\n    collectTaxes();\n    require(msg.sender == licenseHolder, \"Unauthroized assessment attempt\");\n    assessedValue = newAssessedValue;\n  }\n\n  function collectTaxes() public {\n    if (licenseHolder != beneficiary) {\n      _doCollectTaxes();\n    }\n    lastCollectionTime = now;\n  }\n\n  // TODO reduce rounding errors as much as possible\n  function _doCollectTaxes() internal {\n    uint taxPerYear = (assessedValue * annualTaxRate) / 100;\n    uint taxPerSecond = taxPerYear / 31536000; // seconds per year\n    uint taxableSeconds = now - lastCollectionTime;\n    uint taxAmount = taxableSeconds * taxPerSecond;\n    // if license holder doesn't have enough in their balance to pay\n    if (balances[licenseHolder] < taxAmount) {\n      // reclaim the license, allowing the beneficiary to set a sale price\n      // in the future this could automatically allow anyone to open a\n      // second price auction for the license\n      licenseHolder = beneficiary;\n    } else {\n      // otherwise collect the taxes\n      balances[licenseHolder] -= taxAmount;\n\n      // TODO should we just send it to the beneficiary so they don't have to\n      // witndraw?\n      balances[beneficiary] += taxAmount;\n    }\n  }\n\n  function balanceOf(address _owner) public view returns (uint) {\n    return balances[_owner];\n  }\n\n  function withdraw(uint amount) public {\n    collectTaxes();\n    require(amount <= balances[msg.sender]);\n    balances[msg.sender] -= amount;\n    msg.sender.transfer(amount);\n  }\n\n  function deposit() public payable {\n    balances[msg.sender] += msg.value;\n  }\n\n  function () public payable {\n    balances[msg.sender] += msg.value;\n  }\n}\n",
  "sourcePath": "/Users/jesse/projects/luke-cost-one/contracts/COSTLicense.sol",
  "compiler": {
    "name": "solc",
    "version": "0.4.24+commit.e67f0147.Emscripten.clang"
  },
  "schemaVersion": "2.0.1",
  "updatedAt": "2018-10-06T20:35:34.189Z"
}