{
  "contractName": "COSTLicense",
  "abi": [
    {
      "constant": true,
      "inputs": [],
      "name": "licenseHolder",
      "outputs": [
        {
          "name": "",
          "type": "address"
        }
      ],
      "payable": false,
      "stateMutability": "view",
      "type": "function"
    },
    {
      "constant": true,
      "inputs": [
        {
          "name": "",
          "type": "address"
        }
      ],
      "name": "balances",
      "outputs": [
        {
          "name": "",
          "type": "uint256"
        }
      ],
      "payable": false,
      "stateMutability": "view",
      "type": "function"
    },
    {
      "constant": true,
      "inputs": [],
      "name": "beneficiary",
      "outputs": [
        {
          "name": "",
          "type": "address"
        }
      ],
      "payable": false,
      "stateMutability": "view",
      "type": "function"
    },
    {
      "constant": true,
      "inputs": [],
      "name": "assessedValue",
      "outputs": [
        {
          "name": "",
          "type": "uint256"
        }
      ],
      "payable": false,
      "stateMutability": "view",
      "type": "function"
    },
    {
      "constant": true,
      "inputs": [],
      "name": "annualTaxRate",
      "outputs": [
        {
          "name": "",
          "type": "uint256"
        }
      ],
      "payable": false,
      "stateMutability": "view",
      "type": "function"
    },
    {
      "constant": true,
      "inputs": [],
      "name": "lastCollectionTime",
      "outputs": [
        {
          "name": "",
          "type": "uint256"
        }
      ],
      "payable": false,
      "stateMutability": "view",
      "type": "function"
    },
    {
      "constant": true,
      "inputs": [],
      "name": "licenseAgreementHash",
      "outputs": [
        {
          "name": "",
          "type": "bytes32"
        }
      ],
      "payable": false,
      "stateMutability": "view",
      "type": "function"
    },
    {
      "inputs": [
        {
          "name": "_licenseAgreementHash",
          "type": "bytes32"
        },
        {
          "name": "_assessedValue",
          "type": "uint256"
        },
        {
          "name": "_annualTaxRate",
          "type": "uint256"
        },
        {
          "name": "_beneficiary",
          "type": "address"
        }
      ],
      "payable": false,
      "stateMutability": "nonpayable",
      "type": "constructor"
    },
    {
      "payable": true,
      "stateMutability": "payable",
      "type": "fallback"
    },
    {
      "anonymous": false,
      "inputs": [
        {
          "indexed": false,
          "name": "",
          "type": "string"
        },
        {
          "indexed": false,
          "name": "",
          "type": "address"
        }
      ],
      "name": "Address",
      "type": "event"
    },
    {
      "constant": false,
      "inputs": [
        {
          "name": "newAssessment",
          "type": "uint256"
        },
        {
          "name": "agreementHash",
          "type": "bytes32"
        },
        {
          "name": "v",
          "type": "uint8"
        },
        {
          "name": "r",
          "type": "bytes32"
        },
        {
          "name": "s",
          "type": "bytes32"
        }
      ],
      "name": "buy",
      "outputs": [],
      "payable": true,
      "stateMutability": "payable",
      "type": "function"
    },
    {
      "constant": false,
      "inputs": [
        {
          "name": "newAssessedValue",
          "type": "uint256"
        }
      ],
      "name": "assessValue",
      "outputs": [],
      "payable": false,
      "stateMutability": "nonpayable",
      "type": "function"
    },
    {
      "constant": false,
      "inputs": [],
      "name": "collectTaxes",
      "outputs": [],
      "payable": false,
      "stateMutability": "nonpayable",
      "type": "function"
    },
    {
      "constant": false,
      "inputs": [
        {
          "name": "amount",
          "type": "uint256"
        }
      ],
      "name": "withdraw",
      "outputs": [],
      "payable": false,
      "stateMutability": "nonpayable",
      "type": "function"
    },
    {
      "constant": false,
      "inputs": [],
      "name": "deposit",
      "outputs": [],
      "payable": true,
      "stateMutability": "payable",
      "type": "function"
    }
  ],
  "bytecode": "0x608060405234801561001057600080fd5b50604051608080610d6c8339810180604052810190808051906020019092919080519060200190929190805190602001909291908051906020019092919050505060006001026000191684600019161415151561006c57600080fd5b60008211151561007b57600080fd5b60008311151561008a57600080fd5b600073ffffffffffffffffffffffffffffffffffffffff168173ffffffffffffffffffffffffffffffffffffffff16141515156100c657600080fd5b836000816000191690555080600160006101000a81548173ffffffffffffffffffffffffffffffffffffffff021916908373ffffffffffffffffffffffffffffffffffffffff16021790555080600460006101000a81548173ffffffffffffffffffffffffffffffffffffffff021916908373ffffffffffffffffffffffffffffffffffffffff160217905550826002819055508160038190555050505050610bf8806101746000396000f3006080604052600436106100ba576000357c0100000000000000000000000000000000000000000000000000000000900463ffffffff16806301b613a5146101095780630335b062146101205780631d498d911461017757806327e235e3146101ce5780632e1a7d4d1461022557806335c80a1b1461025257806338af3eed1461027f57806354263a1f146102d657806399ec077d14610301578063af9e12761461032c578063d0e30db014610357578063f8b0fd8e14610361575b34600560003373ffffffffffffffffffffffffffffffffffffffff1673ffffffffffffffffffffffffffffffffffffffff16815260200190815260200160002060008282540192505081905550005b34801561011557600080fd5b5061011e610394565b005b610175600480360381019080803590602001909291908035600019169060200190929190803560ff1690602001909291908035600019169060200190929190803560001916906020019092919050505061041f565b005b34801561018357600080fd5b5061018c6107bf565b604051808273ffffffffffffffffffffffffffffffffffffffff1673ffffffffffffffffffffffffffffffffffffffff16815260200191505060405180910390f35b3480156101da57600080fd5b5061020f600480360381019080803573ffffffffffffffffffffffffffffffffffffffff1690602001909291905050506107e5565b6040518082815260200191505060405180910390f35b34801561023157600080fd5b50610250600480360381019080803590602001909291905050506107fd565b005b34801561025e57600080fd5b5061027d600480360381019080803590602001909291905050506108e2565b005b34801561028b57600080fd5b50610294610950565b604051808273ffffffffffffffffffffffffffffffffffffffff1673ffffffffffffffffffffffffffffffffffffffff16815260200191505060405180910390f35b3480156102e257600080fd5b506102eb610976565b6040518082815260200191505060405180910390f35b34801561030d57600080fd5b5061031661097c565b6040518082815260200191505060405180910390f35b34801561033857600080fd5b50610341610982565b6040518082815260200191505060405180910390f35b61035f610988565b005b34801561036d57600080fd5b506103766109d7565b60405180826000191660001916815260200191505060405180910390f35b600460009054906101000a900473ffffffffffffffffffffffffffffffffffffffff1673ffffffffffffffffffffffffffffffffffffffff16600160009054906101000a900473ffffffffffffffffffffffffffffffffffffffff1673ffffffffffffffffffffffffffffffffffffffff16141515610416576104156109dd565b5b42600681905550565b6000610429610394565b600185858585604051600081526020016040526040518085600019166000191681526020018460ff1660ff1681526020018360001916600019168152602001826000191660001916815260200194505050505060206040516020810390808403906000865af11580156104a0573d6000803e3d6000fd5b5050506020604051035190507ff4c3aacff9c51fcafa7abec695cbb0f19a6ff07d75a1a2e97c2e6a262498f3c68160405180806020018373ffffffffffffffffffffffffffffffffffffffff1673ffffffffffffffffffffffffffffffffffffffff1681526020018281038252600e8152602001807f7369676e696e67416464726573730000000000000000000000000000000000008152506020019250505060405180910390a1600073ffffffffffffffffffffffffffffffffffffffff168173ffffffffffffffffffffffffffffffffffffffff16141515156105ed576040517f08c379a00000000000000000000000000000000000000000000000000000000081526004018080602001828103825260148152602001807f5a65726f207369676e696e67206164647265737300000000000000000000000081525060200191505060405180910390fd5b600086111515610665576040517f08c379a00000000000000000000000000000000000000000000000000000000081526004018080602001828103825260138152602001807f5a65726f206e6577206173736573736d656e740000000000000000000000000081525060200191505060405180910390fd5b60025434141515610704576040517f08c379a00000000000000000000000000000000000000000000000000000000081526004018080602001828103825260258152602001807f53656e7420696e636f72726563742076616c75652077697468207472616e736181526020017f6374696f6e00000000000000000000000000000000000000000000000000000081525060400191505060405180910390fd5b600160009054906101000a900473ffffffffffffffffffffffffffffffffffffffff1673ffffffffffffffffffffffffffffffffffffffff166108fc6002549081150290604051600060405180830381858888f1935050505015801561076e573d6000803e3d6000fd5b508560028190555080600160006101000a81548173ffffffffffffffffffffffffffffffffffffffff021916908373ffffffffffffffffffffffffffffffffffffffff160217905550505050505050565b600160009054906101000a900473ffffffffffffffffffffffffffffffffffffffff1681565b60056020528060005260406000206000915090505481565b600560003373ffffffffffffffffffffffffffffffffffffffff1673ffffffffffffffffffffffffffffffffffffffff16815260200190815260200160002054811115151561084b57600080fd5b80600560003373ffffffffffffffffffffffffffffffffffffffff1673ffffffffffffffffffffffffffffffffffffffff168152602001908152602001600020600082825403925050819055503373ffffffffffffffffffffffffffffffffffffffff166108fc829081150290604051600060405180830381858888f193505050501580156108de573d6000803e3d6000fd5b5050565b6108ea610394565b600160009054906101000a900473ffffffffffffffffffffffffffffffffffffffff1673ffffffffffffffffffffffffffffffffffffffff163373ffffffffffffffffffffffffffffffffffffffff1614151561094657600080fd5b8060028190555050565b600460009054906101000a900473ffffffffffffffffffffffffffffffffffffffff1681565b60025481565b60035481565b60065481565b34600560003373ffffffffffffffffffffffffffffffffffffffff1673ffffffffffffffffffffffffffffffffffffffff16815260200190815260200160002060008282540192505081905550565b60005481565b6000806000806064600354600254028115156109f557fe5b0493506301e1338084811515610a0757fe5b0492506006544203915082820290508060056000600160009054906101000a900473ffffffffffffffffffffffffffffffffffffffff1673ffffffffffffffffffffffffffffffffffffffff1673ffffffffffffffffffffffffffffffffffffffff168152602001908152602001600020541015610ae757600460009054906101000a900473ffffffffffffffffffffffffffffffffffffffff16600160006101000a81548173ffffffffffffffffffffffffffffffffffffffff021916908373ffffffffffffffffffffffffffffffffffffffff160217905550610bc6565b8060056000600160009054906101000a900473ffffffffffffffffffffffffffffffffffffffff1673ffffffffffffffffffffffffffffffffffffffff1673ffffffffffffffffffffffffffffffffffffffff168152602001908152602001600020600082825403925050819055508060056000600460009054906101000a900473ffffffffffffffffffffffffffffffffffffffff1673ffffffffffffffffffffffffffffffffffffffff1673ffffffffffffffffffffffffffffffffffffffff168152602001908152602001600020600082825401925050819055505b505050505600a165627a7a72305820f5a0d6e13ab0255c2fdac2211d8b2c0d1b3692d2457741009de6944058a417260029",
  "source": "pragma solidity ^0.4.22;\n\ncontract COSTLicense {\n\n  event Address(string, address);\n\n  bytes32 public licenseAgreementHash;\n  address public licenseHolder;\n  uint public assessedValue;\n  uint public annualTaxRate;\n  address public beneficiary;\n\n  mapping(address => uint) public balances;\n\n  uint public lastCollectionTime; // unix timestamp in seconds\n\n  constructor(bytes32 _licenseAgreementHash,\n              uint _assessedValue,\n              uint _annualTaxRate,\n              address _beneficiary) public {\n\n    require(_licenseAgreementHash != bytes32(0));\n    require(_annualTaxRate > 0);\n    require(_assessedValue > 0);\n    require(_beneficiary != address(0));\n\n    licenseAgreementHash = _licenseAgreementHash;\n    licenseHolder = _beneficiary;\n    beneficiary = _beneficiary;\n    assessedValue = _assessedValue;\n    annualTaxRate = _annualTaxRate;\n  }\n\n  // buy the license for the assessed value\n  function buy(uint newAssessment,\n               bytes32 agreementHash,\n               uint8 v,\n               bytes32 r,\n               bytes32 s) public payable {\n    collectTaxes();\n    address signingAddress = ecrecover(agreementHash, v, r, s);\n    emit Address(\"signingAddress\", signingAddress);\n    require(signingAddress != address(0), \"Zero signing address\");\n    require(newAssessment > 0, \"Zero new assessment\");\n    require(msg.value == assessedValue, \"Sent incorrect value with transaction\");\n\n    licenseHolder.transfer(assessedValue);\n\n    assessedValue = newAssessment;\n    licenseHolder = signingAddress;\n  }\n\n  function assessValue(uint newAssessedValue) public {\n    collectTaxes();\n    require(msg.sender == licenseHolder);\n    assessedValue = newAssessedValue;\n  }\n\n  function collectTaxes() public {\n    if (licenseHolder != beneficiary) {\n      _doCollectTaxes();\n    }\n    lastCollectionTime = now;\n  }\n\n  // TODO reduce rounding errors as much as possible\n  function _doCollectTaxes() internal {\n    uint taxPerYear = (assessedValue * annualTaxRate) / 100;\n    uint taxPerSecond = taxPerYear / 31536000; // seconds per year\n    uint taxableSeconds = now - lastCollectionTime;\n    uint taxAmount = taxableSeconds * taxPerSecond;\n    // if license holder doesn't have enough in their balance to pay\n    if (balances[licenseHolder] < taxAmount) {\n      // reclaim the license, allowing the beneficiary to set a sale price\n      // in the future this could automatically allow anyone to open a\n      // second price auction for the license\n      licenseHolder = beneficiary;\n    } else {\n      // otherwise collect the taxes\n      balances[licenseHolder] -= taxAmount;\n      balances[beneficiary] += taxAmount;\n    }\n  }\n\n  function withdraw(uint amount) public {\n    require(amount <= balances[msg.sender]);\n    balances[msg.sender] -= amount;\n    msg.sender.transfer(amount);\n  }\n\n  function deposit() public payable {\n    balances[msg.sender] += msg.value;\n  }\n\n  function () public payable {\n    balances[msg.sender] += msg.value;\n  }\n}\n",
  "sourcePath": "/Users/jesse/projects/luke-cost-one/contracts/COSTLicense.sol",
  "compiler": {
    "name": "solc",
    "version": "0.4.24+commit.e67f0147.Emscripten.clang"
  },
  "schemaVersion": "2.0.1",
  "updatedAt": "2018-10-04T20:39:25.146Z"
}