{
  "contractName": "COSTLicense",
  "abi": [
    {
      "constant": true,
      "inputs": [],
      "name": "creator",
      "outputs": [
        {
          "name": "",
          "type": "address"
        }
      ],
      "payable": false,
      "stateMutability": "view",
      "type": "function"
    },
    {
      "constant": true,
      "inputs": [],
      "name": "licenseHolder",
      "outputs": [
        {
          "name": "",
          "type": "address"
        }
      ],
      "payable": false,
      "stateMutability": "view",
      "type": "function"
    },
    {
      "constant": true,
      "inputs": [
        {
          "name": "",
          "type": "address"
        }
      ],
      "name": "balances",
      "outputs": [
        {
          "name": "",
          "type": "uint256"
        }
      ],
      "payable": false,
      "stateMutability": "view",
      "type": "function"
    },
    {
      "constant": true,
      "inputs": [],
      "name": "beneficiary",
      "outputs": [
        {
          "name": "",
          "type": "address"
        }
      ],
      "payable": false,
      "stateMutability": "view",
      "type": "function"
    },
    {
      "constant": true,
      "inputs": [],
      "name": "assessedValue",
      "outputs": [
        {
          "name": "",
          "type": "uint256"
        }
      ],
      "payable": false,
      "stateMutability": "view",
      "type": "function"
    },
    {
      "constant": true,
      "inputs": [],
      "name": "attestation",
      "outputs": [
        {
          "name": "",
          "type": "string"
        }
      ],
      "payable": false,
      "stateMutability": "view",
      "type": "function"
    },
    {
      "constant": true,
      "inputs": [],
      "name": "annualTaxRate",
      "outputs": [
        {
          "name": "",
          "type": "uint256"
        }
      ],
      "payable": false,
      "stateMutability": "view",
      "type": "function"
    },
    {
      "constant": true,
      "inputs": [],
      "name": "beneficiaryTaxBasisPoints",
      "outputs": [
        {
          "name": "",
          "type": "uint256"
        }
      ],
      "payable": false,
      "stateMutability": "view",
      "type": "function"
    },
    {
      "constant": true,
      "inputs": [],
      "name": "lastCollectionTime",
      "outputs": [
        {
          "name": "",
          "type": "uint256"
        }
      ],
      "payable": false,
      "stateMutability": "view",
      "type": "function"
    },
    {
      "constant": true,
      "inputs": [],
      "name": "licenseAgreementHash",
      "outputs": [
        {
          "name": "",
          "type": "bytes32"
        }
      ],
      "payable": false,
      "stateMutability": "view",
      "type": "function"
    },
    {
      "constant": true,
      "inputs": [],
      "name": "beneficiarySaleBasisPoints",
      "outputs": [
        {
          "name": "",
          "type": "uint256"
        }
      ],
      "payable": false,
      "stateMutability": "view",
      "type": "function"
    },
    {
      "inputs": [
        {
          "name": "_licenseAgreementHash",
          "type": "bytes32"
        },
        {
          "name": "_assessedValue",
          "type": "uint256"
        },
        {
          "name": "_annualTaxRate",
          "type": "uint256"
        },
        {
          "name": "_creator",
          "type": "address"
        },
        {
          "name": "_beneficiary",
          "type": "address"
        },
        {
          "name": "_beneficiarySaleBasisPoints",
          "type": "uint256"
        },
        {
          "name": "_beneficiaryTaxBasisPoints",
          "type": "uint256"
        },
        {
          "name": "_attestation",
          "type": "string"
        }
      ],
      "payable": false,
      "stateMutability": "nonpayable",
      "type": "constructor"
    },
    {
      "payable": true,
      "stateMutability": "payable",
      "type": "fallback"
    },
    {
      "anonymous": false,
      "inputs": [
        {
          "indexed": false,
          "name": "msg",
          "type": "string"
        },
        {
          "indexed": false,
          "name": "addr",
          "type": "address"
        }
      ],
      "name": "Address",
      "type": "event"
    },
    {
      "constant": false,
      "inputs": [
        {
          "name": "_newAssessment",
          "type": "uint256"
        },
        {
          "name": "_attestation",
          "type": "string"
        }
      ],
      "name": "buy",
      "outputs": [],
      "payable": true,
      "stateMutability": "payable",
      "type": "function"
    },
    {
      "constant": false,
      "inputs": [
        {
          "name": "newAssessedValue",
          "type": "uint256"
        }
      ],
      "name": "assessValue",
      "outputs": [],
      "payable": false,
      "stateMutability": "nonpayable",
      "type": "function"
    },
    {
      "constant": false,
      "inputs": [],
      "name": "collectTaxes",
      "outputs": [],
      "payable": false,
      "stateMutability": "nonpayable",
      "type": "function"
    },
    {
      "constant": true,
      "inputs": [
        {
          "name": "_owner",
          "type": "address"
        }
      ],
      "name": "balanceOf",
      "outputs": [
        {
          "name": "",
          "type": "uint256"
        }
      ],
      "payable": false,
      "stateMutability": "view",
      "type": "function"
    },
    {
      "constant": false,
      "inputs": [
        {
          "name": "amount",
          "type": "uint256"
        }
      ],
      "name": "withdraw",
      "outputs": [],
      "payable": false,
      "stateMutability": "nonpayable",
      "type": "function"
    },
    {
      "constant": false,
      "inputs": [],
      "name": "deposit",
      "outputs": [],
      "payable": true,
      "stateMutability": "payable",
      "type": "function"
    }
  ],
  "bytecode": "0x60806040523480156200001157600080fd5b506040516200152a3803806200152a83398101806040528101908080519060200190929190805190602001909291908051906020019092919080519060200190929190805190602001909291908051906020019092919080519060200190929190805182019291905050506000600102600019168860001916141515156200009857600080fd5b600086111515620000a857600080fd5b600087111515620000b857600080fd5b600073ffffffffffffffffffffffffffffffffffffffff168573ffffffffffffffffffffffffffffffffffffffff1614151515620000f557600080fd5b600073ffffffffffffffffffffffffffffffffffffffff168473ffffffffffffffffffffffffffffffffffffffff1614156200014c576000831415156200013b57600080fd5b6000821415156200014b57600080fd5b5b876000816000191690555084600260006101000a81548173ffffffffffffffffffffffffffffffffffffffff021916908373ffffffffffffffffffffffffffffffffffffffff16021790555084600560006101000a81548173ffffffffffffffffffffffffffffffffffffffff021916908373ffffffffffffffffffffffffffffffffffffffff16021790555083600660006101000a81548173ffffffffffffffffffffffffffffffffffffffff021916908373ffffffffffffffffffffffffffffffffffffffff1602179055508260078190555081600881905550866003819055508560048190555080600190805190602001906200024e92919062000264565b5042600a81905550505050505050505062000313565b828054600181600116156101000203166002900490600052602060002090601f016020900481019282601f10620002a757805160ff1916838001178555620002d8565b82800160010185558215620002d8579182015b82811115620002d7578251825591602001919060010190620002ba565b5b509050620002e79190620002eb565b5090565b6200031091905b808211156200030c576000816000905550600101620002f2565b5090565b90565b61120780620003236000396000f3006080604052600436106100f1576000357c0100000000000000000000000000000000000000000000000000000000900463ffffffff16806301b613a51461014057806302d05d3f146101575780631d498d91146101ae57806327e235e3146102055780632e1a7d4d1461025c57806335c80a1b1461028957806338af3eed146102b657806354263a1f1461030d5780635ea1d46a1461033857806370a08231146103c857806399ec077d1461041f578063abb122e41461044a578063af9e127614610475578063b7dc3b18146104a0578063d0e30db014610506578063f8b0fd8e14610510578063fc2c0c1f14610543575b34600960003373ffffffffffffffffffffffffffffffffffffffff1673ffffffffffffffffffffffffffffffffffffffff16815260200190815260200160002060008282540192505081905550005b34801561014c57600080fd5b5061015561056e565b005b34801561016357600080fd5b5061016c6105f9565b604051808273ffffffffffffffffffffffffffffffffffffffff1673ffffffffffffffffffffffffffffffffffffffff16815260200191505060405180910390f35b3480156101ba57600080fd5b506101c361061f565b604051808273ffffffffffffffffffffffffffffffffffffffff1673ffffffffffffffffffffffffffffffffffffffff16815260200191505060405180910390f35b34801561021157600080fd5b50610246600480360381019080803573ffffffffffffffffffffffffffffffffffffffff169060200190929190505050610645565b6040518082815260200191505060405180910390f35b34801561026857600080fd5b506102876004803603810190808035906020019092919050505061065d565b005b34801561029557600080fd5b506102b4600480360381019080803590602001909291905050506107b3565b005b3480156102c257600080fd5b506102cb61091f565b604051808273ffffffffffffffffffffffffffffffffffffffff1673ffffffffffffffffffffffffffffffffffffffff16815260200191505060405180910390f35b34801561031957600080fd5b50610322610945565b6040518082815260200191505060405180910390f35b34801561034457600080fd5b5061034d61094b565b6040518080602001828103825283818151815260200191508051906020019080838360005b8381101561038d578082015181840152602081019050610372565b50505050905090810190601f1680156103ba5780820380516001836020036101000a031916815260200191505b509250505060405180910390f35b3480156103d457600080fd5b50610409600480360381019080803573ffffffffffffffffffffffffffffffffffffffff1690602001909291905050506109e9565b6040518082815260200191505060405180910390f35b34801561042b57600080fd5b50610434610a32565b6040518082815260200191505060405180910390f35b34801561045657600080fd5b5061045f610a38565b6040518082815260200191505060405180910390f35b34801561048157600080fd5b5061048a610a3e565b6040518082815260200191505060405180910390f35b61050460048036038101908080359060200190929190803590602001908201803590602001908080601f0160208091040260200160405190810160405280939291908181526020018383808284378201915050505050509192919290505050610a44565b005b61050e610ef7565b005b34801561051c57600080fd5b50610525610f46565b60405180826000191660001916815260200191505060405180910390f35b34801561054f57600080fd5b50610558610f4c565b6040518082815260200191505060405180910390f35b600660009054906101000a900473ffffffffffffffffffffffffffffffffffffffff1673ffffffffffffffffffffffffffffffffffffffff16600260009054906101000a900473ffffffffffffffffffffffffffffffffffffffff1673ffffffffffffffffffffffffffffffffffffffff161415156105f0576105ef610f52565b5b42600a81905550565b600560009054906101000a900473ffffffffffffffffffffffffffffffffffffffff1681565b600260009054906101000a900473ffffffffffffffffffffffffffffffffffffffff1681565b60096020528060005260406000206000915090505481565b61066561056e565b600960003373ffffffffffffffffffffffffffffffffffffffff1673ffffffffffffffffffffffffffffffffffffffff16815260200190815260200160002054811115151561071c576040517f08c379a00000000000000000000000000000000000000000000000000000000081526004018080602001828103825260128152602001807f696e73756666696369656e742066756e6473000000000000000000000000000081525060200191505060405180910390fd5b80600960003373ffffffffffffffffffffffffffffffffffffffff1673ffffffffffffffffffffffffffffffffffffffff168152602001908152602001600020600082825403925050819055503373ffffffffffffffffffffffffffffffffffffffff166108fc829081150290604051600060405180830381858888f193505050501580156107af573d6000803e3d6000fd5b5050565b6107bb61056e565b7ff4c3aacff9c51fcafa7abec695cbb0f19a6ff07d75a1a2e97c2e6a262498f3c6600260009054906101000a900473ffffffffffffffffffffffffffffffffffffffff1660405180806020018373ffffffffffffffffffffffffffffffffffffffff1673ffffffffffffffffffffffffffffffffffffffff1681526020018281038252600d8152602001807f6c6963656e7365486f6c646572000000000000000000000000000000000000008152506020019250505060405180910390a17ff4c3aacff9c51fcafa7abec695cbb0f19a6ff07d75a1a2e97c2e6a262498f3c63360405180806020018373ffffffffffffffffffffffffffffffffffffffff1673ffffffffffffffffffffffffffffffffffffffff1681526020018281038252600a8152602001807f6d73672e73656e646572000000000000000000000000000000000000000000008152506020019250505060405180910390a18060038190555050565b600660009054906101000a900473ffffffffffffffffffffffffffffffffffffffff1681565b60035481565b60018054600181600116156101000203166002900480601f0160208091040260200160405190810160405280929190818152602001828054600181600116156101000203166002900480156109e15780601f106109b6576101008083540402835291602001916109e1565b820191906000526020600020905b8154815290600101906020018083116109c457829003601f168201915b505050505081565b6000600960008373ffffffffffffffffffffffffffffffffffffffff1673ffffffffffffffffffffffffffffffffffffffff168152602001908152602001600020549050919050565b60045481565b60085481565b600a5481565b600080610a4f61056e565b60016040518082805460018160011615610100020316600290048015610aac5780601f10610a8a576101008083540402835291820191610aac565b820191906000526020600020905b815481529060010190602001808311610a98575b5050915050604051809103902060001916836040518082805190602001908083835b602083101515610af35780518252602082019150602081019050602083039250610ace565b6001836020036101000a038019825116818451168082178552505050505050905001915050604051809103902060001916141515610b99576040517f08c379a000000000000000000000000000000000000000000000000000000000815260040180806020018281038252600f8152602001807f426164206174746573746174696f6e000000000000000000000000000000000081525060200191505060405180910390fd5b600084111515610c11576040517f08c379a00000000000000000000000000000000000000000000000000000000081526004018080602001828103825260138152602001807f5a65726f206e6577206173736573736d656e740000000000000000000000000081525060200191505060405180910390fd5b60035434141515610cb0576040517f08c379a00000000000000000000000000000000000000000000000000000000081526004018080602001828103825260258152602001807f53656e7420696e636f72726563742076616c75652077697468207472616e736181526020017f6374696f6e00000000000000000000000000000000000000000000000000000081525060400191505060405180910390fd5b600560009054906101000a900473ffffffffffffffffffffffffffffffffffffffff1673ffffffffffffffffffffffffffffffffffffffff16600260009054906101000a900473ffffffffffffffffffffffffffffffffffffffff1673ffffffffffffffffffffffffffffffffffffffff161415610e375761271060075460035402811515610d3b57fe5b04915081600354039050600354818301141515610d5457fe5b8160096000600660009054906101000a900473ffffffffffffffffffffffffffffffffffffffff1673ffffffffffffffffffffffffffffffffffffffff1673ffffffffffffffffffffffffffffffffffffffff168152602001908152602001600020600082825401925050819055508060096000600260009054906101000a900473ffffffffffffffffffffffffffffffffffffffff1673ffffffffffffffffffffffffffffffffffffffff1673ffffffffffffffffffffffffffffffffffffffff16815260200190815260200160002060008282540192505081905550610ea9565b60035460096000600260009054906101000a900473ffffffffffffffffffffffffffffffffffffffff1673ffffffffffffffffffffffffffffffffffffffff1673ffffffffffffffffffffffffffffffffffffffff168152602001908152602001600020600082825401925050819055505b8360038190555033600260006101000a81548173ffffffffffffffffffffffffffffffffffffffff021916908373ffffffffffffffffffffffffffffffffffffffff16021790555050505050565b34600960003373ffffffffffffffffffffffffffffffffffffffff1673ffffffffffffffffffffffffffffffffffffffff16815260200190815260200160002060008282540192505081905550565b60005481565b60075481565b600080600080600080606460045460035402811515610f6d57fe5b0495506301e1338086811515610f7f57fe5b049450600a544203935084840292508260096000600260009054906101000a900473ffffffffffffffffffffffffffffffffffffffff1673ffffffffffffffffffffffffffffffffffffffff1673ffffffffffffffffffffffffffffffffffffffff16815260200190815260200160002054101561105f57600560009054906101000a900473ffffffffffffffffffffffffffffffffffffffff16600260006101000a81548173ffffffffffffffffffffffffffffffffffffffff021916908373ffffffffffffffffffffffffffffffffffffffff1602179055506111d3565b8260096000600260009054906101000a900473ffffffffffffffffffffffffffffffffffffffff1673ffffffffffffffffffffffffffffffffffffffff1673ffffffffffffffffffffffffffffffffffffffff1681526020019081526020016000206000828254039250508190555061271060075484028115156110df57fe5b0491508183039050828183011415156110f457fe5b8160096000600660009054906101000a900473ffffffffffffffffffffffffffffffffffffffff1673ffffffffffffffffffffffffffffffffffffffff1673ffffffffffffffffffffffffffffffffffffffff168152602001908152602001600020600082825401925050819055508060096000600560009054906101000a900473ffffffffffffffffffffffffffffffffffffffff1673ffffffffffffffffffffffffffffffffffffffff1673ffffffffffffffffffffffffffffffffffffffff168152602001908152602001600020600082825401925050819055505b5050505050505600a165627a7a72305820c7a2b73a5e64a664b33fa9cb4f7d82e4912b64e9de08ba18e108c0097c1efaec0029",
  "source": "pragma solidity ^0.4.22;\n\ncontract COSTLicense {\n\n  event Address(string msg, address addr);\n\n  bytes32 public licenseAgreementHash;\n  string public attestation;\n  address public licenseHolder;\n  uint public assessedValue;\n  uint public annualTaxRate;\n  address public creator;\n  address public beneficiary;\n  uint public beneficiarySaleBasisPoints;\n  uint public beneficiaryTaxBasisPoints;\n\n  mapping(address => uint) public balances;\n\n  uint public lastCollectionTime; // unix timestamp in seconds\n\n  constructor(bytes32 _licenseAgreementHash,\n              uint _assessedValue,\n              uint _annualTaxRate,\n              address _creator,\n              address _beneficiary,\n              uint _beneficiarySaleBasisPoints,\n              uint _beneficiaryTaxBasisPoints,\n              string _attestation) public {\n\n    require(_licenseAgreementHash != bytes32(0));\n    require(_annualTaxRate > 0);\n    require(_assessedValue > 0);\n    require(_creator != address(0));\n    if(_beneficiary == address(0)) {\n      require(_beneficiarySaleBasisPoints == 0);\n      require(_beneficiaryTaxBasisPoints == 0);\n    }\n\n    licenseAgreementHash = _licenseAgreementHash;\n    licenseHolder = _creator;\n    creator = _creator;\n    beneficiary = _beneficiary;\n    beneficiarySaleBasisPoints = _beneficiarySaleBasisPoints;\n    beneficiaryTaxBasisPoints = _beneficiaryTaxBasisPoints;\n    assessedValue = _assessedValue;\n    annualTaxRate = _annualTaxRate;\n    attestation = _attestation;\n    lastCollectionTime = now;\n  }\n\n  // buy the license for the assessed value\n  function buy(uint _newAssessment, string _attestation) public payable {\n    collectTaxes();\n    require(keccak256(_attestation) == keccak256(attestation), \"Bad attestation\");\n    require(_newAssessment > 0, \"Zero new assessment\");\n    require(msg.value == assessedValue, \"Sent incorrect value with transaction\");\n\n    if(licenseHolder == creator) {\n      // split sale with beneficiary\n      uint beneficiaryShare = (assessedValue * beneficiarySaleBasisPoints) / 10000;\n      uint creatorShare = assessedValue - beneficiaryShare;\n      assert(beneficiaryShare + creatorShare == assessedValue);\n      balances[beneficiary] += beneficiaryShare;\n      balances[licenseHolder] += creatorShare;\n    } else {\n      balances[licenseHolder] += assessedValue;\n    }\n\n    assessedValue = _newAssessment;\n    licenseHolder = msg.sender;\n  }\n\n  function assessValue(uint newAssessedValue) public {\n    collectTaxes();\n    emit Address(\"licenseHolder\", licenseHolder);\n    emit Address(\"msg.sender\", msg.sender);\n    //    require(msg.sender == licenseHolder, \"Unauthroized assessment attempt\");\n    assessedValue = newAssessedValue;\n  }\n\n  function collectTaxes() public {\n    if (licenseHolder != beneficiary) {\n      _doCollectTaxes();\n    }\n    lastCollectionTime = now;\n  }\n\n  // TODO reduce rounding errors as much as possible\n  function _doCollectTaxes() internal {\n    uint taxPerYear = (assessedValue * annualTaxRate) / 100;\n    uint taxPerSecond = taxPerYear / 31536000; // seconds per year\n    uint taxableSeconds = now - lastCollectionTime;\n    uint taxAmount = taxableSeconds * taxPerSecond;\n    // if license holder doesn't have enough in their balance to pay\n    if (balances[licenseHolder] < taxAmount) {\n      // reclaim the license, allowing the beneficiary to set a sale price\n      // in the future this could automatically allow anyone to open a\n      // second price auction for the license\n      licenseHolder = creator;\n    } else {\n      // otherwise collect the taxes\n      balances[licenseHolder] -= taxAmount;\n      uint beneficiaryShare = (taxAmount * beneficiarySaleBasisPoints) / 10000;\n      uint creatorShare = taxAmount - beneficiaryShare;\n      assert(beneficiaryShare + creatorShare == taxAmount);\n      balances[beneficiary] += beneficiaryShare;\n      balances[creator] += creatorShare;\n    }\n  }\n\n  function balanceOf(address _owner) public view returns (uint) {\n    return balances[_owner];\n  }\n\n  function withdraw(uint amount) public {\n    collectTaxes();\n    require(amount <= balances[msg.sender], \"insufficient funds\");\n    balances[msg.sender] -= amount;\n    msg.sender.transfer(amount);\n  }\n\n  function deposit() public payable {\n    balances[msg.sender] += msg.value;\n  }\n\n  function () public payable {\n    balances[msg.sender] += msg.value;\n  }\n}\n",
  "sourcePath": "/Users/jesse/projects/luke-cost-one/contracts/COSTLicense.sol",
  "compiler": {
    "name": "solc",
    "version": "0.4.24+commit.e67f0147.Emscripten.clang"
  },
  "schemaVersion": "2.0.1",
  "updatedAt": "2018-10-10T23:56:14.928Z"
}